:100000000C940A020C941C020C941C020C941C020A
:100010000C941C020C94042D0C941C020C941C02D5
:100020000C941C020C941C020C941C020C94372D92
:100030000C94292D0C941C020C941C020C941C0290
:100040000C94BA2C0C941C020C941C020C941C02F0
:100050000C941C020C94452D0C941C020C941C0254
:100060000C941C020C941C02312D032D3320342DD2
:1000700033306E46284C29005465737420456E64F5
:1000800000203E3130306E46004F4B0052482F5218
:100090004C0052482B0052482D0069736F6C6174FC
:1000A000652050726F62657321002B52482D2031FC
:1000B00032203133203233002B524C2D203132206C
:1000C0003133203233005248663D005265663D00B0
:1000D00073686F72742050726F626573210053658C
:1000E0006C6674657374206D6F64652E2E00667087
:1000F0006EE46D006B4D705780508D4A6645E3404D
:10010000E83C5E3933365A33C6306D2E492C532ABB
:100110008428DA264E25DF2389224A212020081F41
:10012000011E091D201C431B731AAD19F1183F183D
:100130009517F4165A16C6153A15B3143214B71398
:100140004013CE126112F81193113111D3107810AF
:10015000203132333D00B903870358032E030703D0
:10016000E402C302A4028802537769746368206FB3
:1001700066660053686F7720646174610053656C34
:100180006674657374005472616E736973746F7210
:1001900000662D47656E657261746F720031302D97
:1001A0006269742050574D00432B455352405450C0
:1001B000313A33004328E446292D636F7272656338
:1001C00074696F6E00433073616D70200052454654
:1001D0005F523D005245465F433D00433020005290
:1001E000695F4C6F3D0052695F48693D0052303D88
:1001F0000053656C656374696F6E3A00000014000B
:1002000029003E005300690080009700AE00C60040
:10021000DF00F80012012D01490165018201A001F2
:10022000BE01DE01FF012102440268028E02B50216
:10023000DE020903350364039403C803FE03370495
:100240007304B404F90443059305EA054906B306AB
:100250002907AE074808FF08DE09FD0A930C480F7E
:10026000991B433D007A20513D004C3D00206966BA
:1002700020002D77772D002020202020205B524C5D
:100280005D00312D07062D77772D33200020455353
:10029000523D0020566C6F73733D002D032D005BA3
:1002A000435D00312D032D332000000000080002C3
:1002B0000100000304070000000000000000041F0C
:1002C000111111111F04001E0203021E0000000F75
:1002D0000818080F00001B1B1B1B1B1B1B00111306
:1002E000171F1713110011191D1F1D1911002020B0
:1002F00049723D000104100102044E6F74206361D5
:100300006C69627261746564210064616D61676526
:100310006420004E6F2C20756E6B6E6F776E2C20F4
:100320006F72002D07062D004056673D004964732B
:10033000733D002056743D002D4D4F53002D49470D
:100340004254004A4645540055663D0049434573B2
:100350003D00494345303D005562653D00423D004A
:100360002D022D00504E50004E504E0020646574FA
:100370006563746564002D012D0020756E6B6E6FD2
:10038000776E0070617274002A01202000204030D6
:100390002D3556005472696163005468797269732F
:1003A000742E0054657374696E672E0043656C6C1F
:1003B00021005643433D0041726475546573746572
:1003C000722056312E31336B0054696D656F757430
:1003D00021005244533D0000000000250028002B5E
:1003E0000000000000240027002A00040404040484
:1003F00004040402020202020203030303030301D2
:1004000002040810204080010204081020010204A8
:100410000810200011241FBECFEFD8E0DEBFCDBFF3
:1004200021E0A0E0B1E001C01D92A53BB207E1F7D9
:100430000E94462D0C944D340C94000090E0FC0179
:10044000E150FC4F249185519C4FFC0184918823FD
:1004500099F090E0880F991FFC01EF51FC4FA59196
:10046000B491FC01E952FC4F859194918FB7F894B7
:10047000EC91E22BEC938FBF089590E0FC01E655E0
:10048000FD4F2491FC01E150FC4F3491FC01E551FA
:10049000FC4FE491EE23C9F0222339F0233001F11F
:1004A000A8F4213019F1223029F1F0E0EE0FFF1FFE
:1004B000E952FC4FA591B4918FB7F894EC9161117A
:1004C00026C030953E233C938FBF08952730A9F076
:1004D0002830C9F0243049F7809180008F7D03C017
:1004E000809180008F7780938000DFCF84B58F77F5
:1004F00084BDDBCF84B58F7DFBCF8091B0008F773B
:100500008093B000D2CF8091B0008F7DF9CF3E2B89
:10051000DACF3FB7F89480913C0190913D01A091D2
:100520003E01B0913F0126B5A89B05C02F3F19F0B1
:100530000196A11DB11D3FBFBA2FA92F982F882763
:10054000BC01CD01620F711D811D911D42E0660F3E
:10055000771F881F991F4A95D1F708958F929F9210
:10056000AF92BF92CF92DF92EF92FF924B015C016C
:100570000E9489026B017C010E9489026C197D092D
:100580008E099F09683E734081059105A8F321E01B
:10059000821A9108A108B10888EEC80E83E0D81E1F
:1005A000E11CF11C81149104A104B10429F7FF900E
:1005B000EF90DF90CF90BF90AF909F908F90089575
:1005C0008BE19EE40197F1F708958BE39CE9019795
:1005D000F1F70895EF92FF920F931F93CF93DF935C
:1005E000F82EE92EC5E6339B1EC0CF2DDE2D15E576
:1005F00000E0D7FD10C00E94E502110F339B1F5F82
:100600001F731F33A9F4011103C0CF2DDE2D04E0A9
:100610000F5F083C88F0802FDF91CF911F910F91E1
:10062000FF90EF9008950E94E002C150E1F6DDCF07
:10063000111102C00111EFCFA8951C161D06CCF6B2
:100640002A97B9F6CFEFDFEFD4CF8F5F0895CF931E
:10065000C62F60E0811161E087E00E943D0287E0E3
:100660000E941E0261E086E00E943D0286E00E9438
:100670001E0260E085E00E943D0260E084E00E948E
:100680003D0260E083E00E943D0260E082E00E9463
:100690003D02C4FF04C061E085E00E943D0285E0A8
:1006A0000E941E02C5FF04C061E084E00E943D027A
:1006B00084E00E941E02C6FF04C061E083E00E9445
:1006C0003D0283E00E941E02C7FF04C061E082E099
:1006D0000E943D0282E00E941E0260E086E00E94CD
:1006E0003D0261E086E00E943D0260E085E00E94FC
:1006F0003D0260E084E00E943D0260E083E00E94F1
:100700003D0260E082E00E943D02C0FF04C061E063
:1007100085E00E943D02C1FF04C061E084E00E94C8
:100720003D02C2FF04C061E083E00E943D02C3FFBE
:1007300004C061E082E00E943D0260E086E0CF916B
:100740000C943D02682F80E00E94270383EC90E028
:100750000197F1F7089581E08093B40180EC0E9445
:10076000A2031092B20108951092B40180E80E9491
:10077000A2031092B201089581E00E94A2030E9498
:10078000E5020C94B4039091B2019F5F9093B20183
:10079000682F81E00E94270383EC90E00197F1F736
:1007A000A89508950F931F93CF93DF93EC018C01CD
:1007B000085F1F4FFE0184910E94C30321960C170E
:1007C0001D07C1F7DF91CF911F910F910895CF932E
:1007D000DF93EC01FE018491982F9F7721F00E9416
:1007E000C3032196F7CFDF91CF910895CF93DF9385
:1007F000EC010E94BC03CE010E94E703C4E60E9404
:10080000E502339902C0C150D1F7DF91CF910C942A
:10081000AB0380E20C94C303CF93C82F1C1624F4BF
:100820000E940904C150FACFCF9108959091B2016E
:1008300080E1891B0C940C040E9416048091B40181
:100840008F5F8093B401823070F081E08093B401B7
:100850008093B3018091B4011092B201813031F4E0
:1008600080EC0C94A2031092B301F4CF80E8F9CF8E
:100870000F931F93CF93DF93C091B201C0933601C2
:10088000D091B401D09335011091B301112371F1CE
:10089000113081F4D13071F40FE00093B2018FEC8C
:1008A0000E94A2038BE20E94C3030093B2018FEC6B
:1008B0000E94A20380E49FE10E94EA02D13049F441
:1008C000113039F41092B20180EC0E94A2030E9410
:1008D0001604C093B20180ECD13009F080E88C0F8F
:1008E000DF91CF911F910F910C94A203DF91CF91D3
:1008F0001F910F9108950E941C040C9438040E94CB
:10090000AB030E9416040C94AB038F5C0C94C303DE
:10091000CF93DF9324E130E0B9010E94BB33772706
:10092000FB01EE0FFF1FE450FE4FC591D491FB0178
:10093000EE0FFF1FE250FE4F459154914C1B5D0B93
:10094000849FB001859F700D949F700D1124CB0181
:10095000B9010E94BB33CB018C0F9D1FDF91CF915A
:1009600008952F923F924F925F926F927F928F9253
:100970009F92AF92BF92CF92DF92EF92FF920F932E
:100980001F93CF93DF93CDB7DEB762970FB6F8947E
:10099000DEBF0FBECDBF2C017C836B83DD24D394DF
:1009A0002D2C312C33E0D39E900111243E872D87CE
:1009B000F101EE0FFF1FEE0FFF1FFC87EB87812C6D
:1009C00030E4932E50E0712C612C18861F82B12CDC
:1009D000A12C1A8219821E821D8240E0C12CF0E0F7
:1009E000E0E030E020E061E070E08FEF90E082191D
:1009F0009309988B8F870C2D10E0AF85B8890A1763
:100A00001B070CF0ADC0D801A20DB31DAA0FBB1F70
:100A1000A40DB51D8D919C91E80FF91FD801AA0F67
:100A2000BB1FA40DB51D8D919C91280F391FCD14AE
:100A300008F48BC0D801A219B309AA0FBB1FA40DDB
:100A4000B51D0D90BC91A02D2A1B3B0BE81BF90B8B
:100A50007901EE0EFF1EC9018E1B9F0B89879A87B5
:100A6000D701B695A795B695A795A80FB91FB7FD5D
:100A7000BAC0E217F30708F06AC0513009F067C046
:100A8000D80156E0AA0FBB1F5A95E1F7BA8BA98B84
:100A9000DC01A61BB70BBD01A817B90770F056E023
:100AA000880F991F5A95E1F780960E94BB33898978
:100AB0009A89861B970B9A8B898BAD85BE85EA1622
:100AC000FB0608F44DC08B859C8508171907CCF1EF
:100AD0004423B9F069897A8966197709433058F057
:100AE000D4019096C401969587958A0F9B1F86170F
:100AF000970708F47EC0D71650F4DD24D394D70EA0
:100B00004FCFA989BA89B887AF83FE82ED82AE0C38
:100B1000BF1C4F5F4130F9F0842F8150990BBC010D
:100B200095958795A989BA898A0F9B1FAF81B8854A
:100B30008A1B9B0B0E94BB334B0169887A88FA821F
:100B4000E982453168F450E002C069877A87C3942E
:100B500069857A8550CF69887A88FA82E982F3CFED
:100B6000EB81FC81EF2B29F170E060E04230E8F08E
:100B70009501ED81FE812E1B3F0BA8EEB3E00E9494
:100B80002434E981FA81AE1ABF0A950150E040E0B1
:100B90000E94E33388EE93E0821B930B0E9488044B
:100BA000BC0188EB9AE70E94BB33AB81BC816D939B
:100BB0007C93C40162960FB6F894DEBF0FBECDBF22
:100BC000DF91CF911F910F91FF90EF90DF90CF9029
:100BD000BF90AF909F908F907F906F905F904F905D
:100BE0003F902F90089551E0E217F30708F0AFCF40
:100BF00047CFEB81FC81EF2B09F0BACFDACFCF934F
:100C0000DF93C82FD0E0CE59DE4F8E810E9485043D
:100C100080E693E00E94E7038881DF91CF910C94F6
:100C20008504CF93C82F86E793E00E94E703EC2F5B
:100C3000F0E0EE59FE4F8681CF910C948504CF935E
:100C4000C82FE82FF0E0EE59FE4F80810E94850406
:100C50008C2FCF910C941106E82FF0E0EE59FE4F47
:100C600020819681291720F40E941F060C94090404
:100C70000E94FF05FBCF4F925F926F927F928F92FF
:100C80009F92AF92BF92CF92DF92EF92FF92AC0110
:100C90006C01F12CE12C560199248824E52FFF27C3
:100CA0009A01DA010E9424342C01662477249201EF
:100CB00065E0369527956A95E1F7E29FC001E39FCD
:100CC000900DF29F900D11249A0174E036952795AE
:100CD0007A95E1F7E20FF31FE40FF51F92013695C5
:100CE000279536952795B4E056944794BA95E1F741
:100CF0002419350950E040E02E0F3F1F411D511DC2
:100D0000BC01E3E076956795EA95E1F7861B970BC2
:100D1000280F391F411D511DC701B6010E949F3385
:100D2000680D791D8A1D9B1DFF90EF90DF90CF907D
:100D3000BF90AF909F908F907F906F905F904F90FB
:100D40000895CF92DF92EF92FF92CF9320917B0193
:100D500030917C0140917D0150917E01C0918D01C7
:100D60008AE0C82ED12CE12CF12C8C2FCF5F213AB8
:100D700096E8390791E04907510538F0CA01B901F1
:100D8000A70196010E94E333F0CF80938D01A091DB
:100D9000AC01B091AD010E943A3428E833E140E063
:100DA00050E00E94E33320937B0130937C01409319
:100DB0007D0150937E01CF91FF90EF90DF90CF9017
:100DC00008952091AC013091AD018217930728F46A
:100DD000A901481B590BCA01089590E080E00895CD
:100DE0000F931F93CF93C82FC06417EDC0937C005F
:100DF0008C2F80789091A901891328C020E030E0E1
:100E0000A90180E00091A801801768F510937A008D
:100E100090917A0096FDFCCF6091780070917900F6
:100E2000260F371F411D511D8430D9F46091AA014E
:100E30007091AB016F3F7105A1F098F0211594E01E
:100E4000390778F4C7FD0DC0C068D0CF8093A901E1
:100E50000E94E50210937A0080917A0086FDFCCF13
:100E6000CDCF8F5FCFCFA091AA01B091AB01C7FDCD
:100E700004C0A091AC01B091AD010E943A342FEFB3
:100E800033E040E050E00E94E333CA01B901202F73
:100E900030E050E040E00E94E333C901CF911F9160
:100EA0000F910895CF93C82F64E170E080E090E047
:100EB0000E94AE028C2FCF910C94F006CF93C82FD6
:100EC0000E94E5028C2FCF910C94F006CF93C82F8F
:100ED0000E94E0028C2FCF910C94F00691E08823C1
:100EE00031F0823009F090E0892F92E00895089562
:100EF000EF92FF920F931F93CF93DF93D82FF62E8D
:100F0000E42E80E591E00E94E703C0E00091B0018B
:100F10001091B101F80186858C1303C08D2F0E94BA
:100F2000C303F80184858C1303C08F2D0E94C30373
:100F3000F80185858C1303C08E2D0E94C303CF5FFB
:100F4000C33021F7DF91CF911F910F91FF90EF9068
:100F500008954F925F926F927F928F929F92AF927D
:100F6000BF92CF92DF92EF92FF920F931F93CF9396
:100F7000DF93A895262F30E0F901EC50FD4F5490F7
:100F800033969491A82FB0E0FD01EC50FD4FF49002
:100F90003396B4904091600150919E01450F5527C2
:100FA000551F452B09F064C0A89540910701509149
:100FB0000801440F551F440F551F5093AD01409336
:100FC000AC0140910E0150910F01440F551F440F89
:100FD000551F5093AB014093AA014EEB4093A801DB
:100FE00050917A01E2E6F1E040E02A0F3B1F5417EE
:100FF00051F07191A581A70FBB27BB1FA217B307A3
:1010000021F14F5FF4CFD62FC82F18B897B9F4B895
:10101000F5B8B8E1EB2ED12CC12C8D2F0E946607BC
:10102000982E892E8C2F0E94F0068C018C199D0918
:1010300097FF03C091958195910903970CF460C1C6
:10104000A895EA946801E110E8CF8091070190919A
:1010500008019093AD018093AC0180910E019091B5
:101060000F019093AB018093AA0189E18093A801BD
:10107000DF91CF911F910F91FF90EF90DF90CF9074
:10108000BF90AF909F908F907F906F905F904F90A8
:10109000089525E8E21621E0F206B8F6E4EAAE1675
:1010A000E2E0BE0608F0B5C0F8E9CF16D10468F258
:1010B000C7010E94E106AC019701A8E9B7EB0E94C5
:1010C00024349A0150E040E00E94E33349015A0180
:1010D000C6010E94E1069C01A8E9B7EB0E942434F6
:1010E000960150E040E00E94E33388E7E8168FE085
:1010F000F80608F072C0F2E0880C991CAA1CBB1C10
:10110000FA95D1F7C501B401620F731F841F951FB3
:1011100025E030E040E050E00E94E333A4E6B0E098
:101120000E943A346B017C01FCEACF0EFDE0DF1E29
:10113000E11CF11C1091A601143008F086CFC150BB
:101140000C2F0D0F202F30E0E901CE5FDE4F88819C
:10115000220F331F220F331F205C3E4FF9018823DB
:1011600009F4C7C080809180A280B380A701960156
:10117000281939094A095B0957FF07C0509540955E
:10118000309521953F4F4F4F5F4FAAE0B0E00E944E
:101190003A34F4E68F0E911CA11CB11CA5019401F8
:1011A0002C0D3D1D4E1D5F1D0E94E333232B242B70
:1011B000252B09F04ACF133019F081E08093A60166
:1011C00082E0888380914F01E82FF0E0E45BFE4FDE
:1011D00000838F5F80934F0138CFE8E7CE16EFE0B2
:1011E000DE0670F4E2E0220F331F441F551FEA951C
:1011F000D1F7CA01B901680D791D8A1D9B1D88CFE1
:10120000280D391D4A1D5B1D569547953795279525
:1012100085CF892D982D0817190708F4C80120914A
:10122000050130910601D801A81BB90B8017910761
:1012300010F0B0E0A0E0872C962C8A149B0408F4F0
:1012400045010E9424346B017C01C8010E94E10623
:101250009C0150E040E0C701B6010E94E333690100
:101260007A012091240130912501D401AA19BB09EA
:10127000A814B90410F0B0E0A0E00E942434950155
:1012800050E040E00E94E33308371F40B0F462E0D2
:10129000CC0CDD1CEE1CFF1C6A95D1F7C701B60112
:1012A000620F731F841F951F25E030E040E050E07F
:1012B0000E94E33369017A013DCFE8E7AE16EFE023
:1012C000BE0670F4CA01B90132E0660F771F881FAD
:1012D000991F3A95D1F76C0D7D1D8E1D9F1DE4CF92
:1012E000C20ED31EE41EF51EF694E794D794C7945D
:1012F00021CFC082D182E282F38281E08883A5CEB1
:10130000FF0C15B8F4B88C2F0E9466078135910543
:1013100008F09BCEF5B88C2F0E9466077C01B7B809
:10132000B8B815B854B8A8E14A2ED12CC12C8C2FCE
:101330000E946607782E692E8D2F0E94F0065C01B0
:101340008C199D0997FF03C0919581959109039789
:1013500034F0A8954A9465014110E9CF76CE550C3A
:1013600054B88D2F0E9466076C01003CF4E41F07FF
:1013700008F48FCE80EBE8168DE4F80608F065CE11
:101380008DCECF93DF938C3221E0920760F18C52A7
:10139000914069E170E00E94BB3399E1981B6C3287
:1013A00010F090E06BE270E0660F771FFB01EA50EF
:1013B000FF4F45915491FB01E850FF4FC591D491E7
:1013C0004C1B5D0B949F9001959F300D1124C9011A
:1013D0000C9669E170E00E94BB33CB018C0F9D1F1E
:1013E000DF91CF91089590E080E0D3CF8F929F92CC
:1013F000BF92CF92DF92EF92FF920F931F93CF9302
:10140000DF931AE08FE3B82E09E09BE9E92E9FE015
:10141000F92E17B818B815B8B4B880E00E9466075E
:101420006C0181E00E94F006EC0182E00E94F0066F
:101430009C018091A6018930D1F417B814B8D092DC
:10144000A101C092A001D093A301C093A201309347
:10145000A5012093A401DF91CF911F910F91FF90DF
:10146000EF90DF90CF90BF909F908F90089584E091
:10147000C816D10450F4C430D10508F04FC0243050
:101480003105D8F291E092600AC091E088EEC8166A
:1014900083E0D80608F090E0C83ED340A0F3283E91
:1014A000334008F4946097B9D0E0C0E0A89580E09C
:1014B0000E9452074C0181E00E94F0066C0182E01C
:1014C0000E94F00624E1821625E0920608F4389A7C
:1014D00024E1C21625E0D20608F4399A843125E0C9
:1014E000920708F43A9A26E08216910430F426E036
:1014F000C216D10410F4069738F02196C43F81E05B
:10150000D807A1F60093A60190E080E08C179D0714
:1015100039F0F7013197F1F70196F8CF91E0BCCFA0
:10152000115009F076CF97CFFC019C01261B370B99
:10153000CA0170E060E0A901460F511D452F5527F3
:10154000620F240F351FAC01470F511D452F552742
:10155000780FDA01AA0FBB1F8A0F9B1F4B3E20F4A6
:10156000E217F30740F7089590E080E00895CF93E5
:10157000C82FC09595B1662379F0982B95B994B191
:10158000892B84B90E94E50284B18C2384B985B18A
:101590008C2385B9CF9108959C23F0CF2F923F9251
:1015A0004F925F926F927F928F929F92AF92BF9273
:1015B000CF92DF92EF92FF920F931F93CF93DF931F
:1015C000CDB7DEB769970FB6F894DEBF0FBECDBFBB
:1015D000888F162F4983A895E62FF0E0EC50FD4F39
:1015E000C490C88ACC0CCD8A3396D490DA82E42F8A
:1015F000F0E0EC50FD4F049133965490E82FF0E06A
:10160000EC50FD4F9490E92CEE0CE98A3396F4905F
:10161000F98E05B9C888C02ACA8AC4B8F7B8F8B81C
:10162000862F0E9466075C01D888D4B8812F0E945B
:1016300066073C0114B80E94E50215B8C4B8812FB2
:101640000E9466076C01CA18DB08A816B90618F0D4
:101650006501C81AD90AEA80E7B818B8F02EF92847
:10166000FC82F5B8F4B8888D0E9466070E94E106F6
:101670007C0115B80E94E50295B8888D0E94660726
:101680000E94E1069F878E8794B8888D0E94660726
:101690000E94E1061C012E853F852E153F0508F0AE
:1016A00008C1E21AF30A90E2E91691E0F90630F473
:1016B000A0E2CA16A1E0DA0608F4CEC6EE85FF85E0
:1016C000CE0EDF1EEA0CFB1CCE14DF0418F0BF8622
:1016D000AE86130120919E0180916001820F9927AF
:1016E000991F02974CF0213009F0D0C590919B01D1
:1016F00080915D019813CAC5B02EBB0CA888AB2899
:101700008B2C89282E853F852437310508F4AFC1FD
:10171000C9010A96880F991F2816390608F0A7C133
:10172000C98CC7B8C8B8A4B8812F0E945E076C01E5
:1017300089810E94F0067C01B5B8812F0E945E0766
:101740009601295A3D4F18B82817390708F0BFC02D
:101750002A8127B984B885B889810E945E078834B8
:101760009F4008F4ACC085E08093A60182E280939C
:101770005001D0929401C0929301C6018E199F0925
:10178000EC14FD0410F090E080E090939A018093B7
:1017900099019601A0E1B7E20E942434209124012E
:1017A0003091250150E040E00E94E33330939601F0
:1017B000209395018D898B2984B915B8C98CC7B838
:1017C000C8B889810E94F0067C01812F0E945E07C3
:1017D000E816F90608F078C08E199F0990939801D1
:1017E00080939701209150012F70243079F540911A
:1017F0009501509196016091990170919A010E9412
:10180000940A0097F9F0B4B8D98CEA80DE28D7B8EA
:10181000812F0E945E077C0117B89C01A0E1B7E20E
:101820000E942434209122013091230150E040E0B5
:101830000E94E333A901B70180919701909198012B
:101840000E94940A90939401809393018091500197
:101850008F70843041F118B88A80852887B894B891
:10186000FC80F5B8888D0E9466077C010E94E10625
:101870006C01812F0E94F006209105013091060134
:10188000D701A81BB90B8E159F0510F0B0E0A0E0A2
:101890000E942434960150E040E00E94E3333093EC
:1018A00094012093930180919E018F5F80939E010C
:1018B00066C38E859F858E199F097C01F4CE85E0D5
:1018C0008093A60184E253CF90E080E087CFCA8066
:1018D000C7B884B885B8888D0E945E076C0189817D
:1018E0000E94F0067C0195B8888D0E945E07895A97
:1018F0009D4F8C159D0508F0C9C4298D28B927B9BD
:1019000089810E945E07813D934008F0A5C085E073
:101910008093A60182E380935001CE14DF0408F087
:10192000A0C0EC18FD08F0925C01E0925B01C601DA
:101930000E94E1069C01A0E1B7E20E9424342091BC
:1019400005013091060150E040E00E94E3333093FE
:1019500058012093570118B8CA80C7B889898B29C4
:1019600084B985B9888D0E94F0067C0189810E9426
:101970005E07E816F90608F077C08E199F09909364
:101980005A0180935901209150012F70243099F50C
:10199000409157015091580160915B0170915C0139
:1019A0000E94940A009719F1B5B8B4B8D98CD8B888
:1019B0003A803D2837B8888D0E945E070E94E10674
:1019C0007C0117B89C01A0E1B7E20E942434209169
:1019D00014013091150150E040E00E94E333A90169
:1019E000B7018091590190915A010E94940A9093F5
:1019F000560180935501809150018F70843031F1F0
:101A0000E98CE528E8B8E7B815B8FC80F4B8888D0B
:101A10000E9466077C01812F0E94F006AC01209194
:101A2000240130912501D701A81BB90B8E159F0504
:101A300010F0B0E0A0E00E9424349A0150E040E0B1
:101A40000E94E33330935601209355018091600149
:101A50008F5F809360011EC185E08093A60184E3BF
:101A60005ACFF12CE12C5FCF90E080E088CF18B8FE
:101A7000CA80C7B895B884B8888D0E9466079D87CC
:101A80008C870E94E1069F838E8389810E94F006E5
:101A90009987888791012C593F4F3F8B2E8BCE80A1
:101AA000DF802C153D0508F0F7C07601E218F30839
:101AB0002C143D0410F0F12CE12C20910501309103
:101AC000060150E040E060E871EA83E09CE10E949A
:101AD000E333D7010E943A34E884F984970150E057
:101AE00040E00E94E33369017A0114B815B8298DEA
:101AF00028B927B90E94E0023A8934B9812F0E949F
:101B000066078F359D4008F47CC1A4B8812F0E94E0
:101B10005E073C0189810E94F0069C8B8B8B888D2F
:101B20000E94F0062C018B899C89813D974008F426
:101B3000F5C084E08093A6018DE0809350012614C7
:101B4000370408F0D0C0F301E219F309FB83EA83FC
:101B50008090240190902501B12CA12C60E871EABD
:101B600083E09CE1A50194010E94E333AA81BB813B
:101B70000E943A34AB89BC899D0150E040E00E944C
:101B8000E33380916001882371F08091510190913D
:101B90005201A0915301B091540182179307A407F9
:101BA000B50708F0A6C0209351013093520140932D
:101BB0005301509354019301A0E1B7E20E942434F1
:101BC000A50194010E94E3333093580120935701FB
:101BD000EB89FC89E415F50508F088C04E1A5F0A08
:101BE000509256014092550181E04091510150912F
:101BF000520160915301709154014C155D056E05C1
:101C00007F0508F078C0C0925101D0925201E09255
:101C10005301F0925401CC84DD84E884F984C60138
:101C20008E199F09EC14FD0410F090E080E0909371
:101C30005601809355012E813F81A0E1B7E20E94B9
:101C40002434209105013091060150E040E00E94CB
:101C5000E333205F384D30935801209357019101B1
:101C6000A0E1B7E20E942434A50194010E94E3336D
:101C700030935A01209359012E853F85A0E1B7E2A8
:101C80000E942434A50194010E94E33330935C0147
:101C900020935B0181E031C0CE80DF807601E218C5
:101CA000F3082C143D0410F0F12CE12CDC80D4B8A6
:101CB000888D0E9466079D878C870E94E1069F831E
:101CC0008E8389810E94F006998788879701281B57
:101CD000390B8E159F0510F030E020E0A4E6B0E04F
:101CE0000E942434F9CE7B826A8232CF512C412C5F
:101CF00077CF80E07ACF8111B2CF909160019F5F62
:101D000090936001882309F488C3D980D0925D0143
:101D100010935E01E88CE0925F017FC321E62216FA
:101D2000310408F06EC031ED631637E0730608F435
:101D300068C085E08093A60182E180935001C301D1
:101D400086509F4F8415950508F043C083E180932A
:101D500050014A814770342E8981806480937C00D1
:101D60008BE08A83CC24C394D12CEE24EA94B3E094
:101D7000FB2EA89561E0802F0E94B70AA4B886B117
:101D80008321E9F3988994B980917A0080648093E3
:101D90007A0080917A0086FDFCCF80917800909146
:101DA0007900D701A81BB90BCA0EDB1EBA81B1504E
:101DB000BA83B111DECFC601880F991F880F991F12
:101DC00069E070E00E94BB3370935C0160935B013B
:101DD0003DCE2091240130912501D201A619B709E9
:101DE0006414750410F0B0E0A0E00E942434930164
:101DF00050E040E00E94E3333093560120935501B8
:101E0000A8CFA4B8B5B8812F0E9466073C0189818C
:101E10000E94F0062C010E94E1067C01CE88DF883A
:101E2000C614D70408F0ADC06301C218D308261445
:101E3000370410F0D12CC12C2091240130912501C0
:101E400050E040E060E871EA83E09CE10E94E33307
:101E5000D6010E943A34970150E040E00E94E333FB
:101E6000288739874A875B87EA80E7B818B8FC80FB
:101E7000F4B8F5B8888D0E9466076C0189810E94CC
:101E8000F0067C01812F0E94F0065C0120E3C2165F
:101E900021E1D20608F0F8C195B8888D0E94660746
:101EA0009F838E8394B8888D0E9466079D878C8758
:101EB00015B80E94E00295B8888D0E946607AC852F
:101EC000BD85A034B64008F081C08133914108F44B
:101ED0007DC0C6018A569F4F2E813F812817390742
:101EE00008F074C086E08093A60180919E018F5F08
:101EF00080939E01C7018A199B09AE14BF0410F09C
:101F000090E080E09093940180939301AC14BD0421
:101F100008F059C0CA18DB08D0929A01C092990102
:101F200014B815B8CA80C8B80E94E00294B8888D69
:101F30000E946607853F910510F5DC80D4B8898141
:101F40000E946607813D9340D0F0888D0E94F00684
:101F50008D3D9240A0F094B8888D0E9466078D3D1B
:101F6000924068F095B80E94E00215B8888D0E94F2
:101F70006607853F910518F487E08093A60181E00C
:101F800005C1DA88D4B805B9812F0E9466073C01E3
:101F900089810E94F0062C010E94E106AC019301A8
:101FA0002614370410F4221933094217530740F45A
:101FB000241B350BA4E6B0E00E9424349A014CCFD8
:101FC00030E020E0F7CFD12CC12CA6CFCA80C7B813
:101FD00004B905B90E94E00284B885B8888D0E94D2
:101FE00066077C010E94E1069D838C8389810E94A3
:101FF000F0069F838E830E94E1069D878C87812F48
:102000000E94F0066C012C853D852E3F394008F476
:10201000CEC084E08093A6018CE080935001EC80D8
:10202000FD802E143F0408F0AAC0E218F308809047
:10203000050190900601B12CA12C60E871EA83E0C3
:102040009CE1A50194010E94E333D7010E943A3438
:10205000EC84FD84970150E040E00E94E3338091DE
:102060009E01882371F080918F0190919001A09141
:102070009101B091920182179307A407B50708F068
:1020800081C020938F013093900140939101509330
:102090009201EE80FF80C7018C199D09CE14DF04E8
:1020A00010F090E080E090939401809393012C8154
:1020B0003D81A0E1B7E20E942434A50194010E9471
:1020C000E333309396012093950181E040918F0195
:1020D000509190016091910170919201C884D984CE
:1020E000EA84FB844C155D056E057F0508F04CC045
:1020F000C0928F01D0929001E0929101F0929201F2
:10210000C201861997096414750410F090E080E00C
:1021100090939401809393019301A0E1B7E20E9410
:102120002434209124013091250150E040E00E94A8
:10213000E333205F384D3093960120939501910150
:10214000A0E1B7E20E9424342091240130912501BE
:1021500050E040E00E94E3333093980120939701D0
:102160002E853F85A0E1B7E20E942434A5019401A9
:102170000E94E33330939A012093990100CFF12C10
:10218000E12C55CF80E0A2CF8111D9CF90919E0153
:102190009F5F90939E01882309F43FC1F980F092DC
:1021A0009B01C88CC0929C0110939D0136C121E611
:1021B0002216310408F068C08C819D8189349D40CD
:1021C00008F462C085E08093A60182E0809350010C
:1021D000C60186509F4F8E159F05E0F583E08093E2
:1021E0005001298D2770D22E8981806480937C00D4
:1021F0003BE03A83EE24E394F12CA89560E0802F35
:102200000E94B70A84B885B886B18D21E9F794B8E1
:1022100080917A00806480937A0080917A0086FDB4
:10222000FCCF8091780090917900E80EF91E4A81E8
:1022300041504A834111E1CFC701880F991F880F90
:10224000991F69E070E00E94BB3370939A0160931C
:10225000990129CB2091050130910601D701AC19D4
:10226000BD09CE14DF0410F0B0E0A0E00E942434D9
:10227000CC80DD80960150E040E00E94E333309353
:10228000940120939301ADCF17B818B814B815B8BE
:1022900017B887EC281681E0380608F4FBC018B898
:1022A000C988C4B868ECF62EEA80D98CED28E7B866
:1022B0000E94E002CA80C7B8888D0E94F00642974B
:1022C00018F0FA94F110F3CFD988D4B8D5B861E0FA
:1022D000802F0E94B70A888D0E9466073C01ED8816
:1022E000E4B815B8F98CF7B8F8B860E0802F0E9410
:1022F000B70A812F0E9466070E94E1065C01C88828
:10230000C4B8812F0E94F0067C01888D0E94660768
:102310006C01CE18DF08E816F90610F0D12CC12C9C
:10232000812F0E94F0067C01888D0E946607E816C6
:10233000F90608F093C08E199F0996012C5E3F4F55
:102340002817390708F469C018B8EA80E7B894B8C4
:1023500095B861E0802F0E94B70A812F0E94F00695
:102360004C01888D0E9466078816990608F079C08E
:102370007C01E818F908CE14DF0408F072C0C9889F
:10238000C4B8C5B8888D0E9466079C01530148EE09
:10239000E41643E0F40608F076C0C70164E670E096
:1023A0000E94BB33C701875991098938914108F0D0
:1023B00071C02E153F0508F06DC0C50143E096952C
:1023C00087954A95E1F7893C910510F088EC90E0FB
:1023D0008A0D9B1D8E159F0508F05CC06A157B0554
:1023E00008F058C08091A601833018F483E08093F0
:1023F000A60120917A01822F90E0FC01EE59FE4F58
:10240000C88CC0821683880F991FFC01E259FE4FC9
:10241000F182E0822F5F20937A0117B818B814B8C0
:1024200015B88EE269960FB6F894DEBF0FBECDBF29
:10243000DF91CF911F910F91FF90EF90DF90CF90A0
:10244000BF90AF909F908F907F906F905F904F90D4
:102450003F902F900C94C303130118CF90E080E0BD
:102460006CCFED88E4B815B8F98CF7B8F8B860E02F
:10247000802F0E94B70A812F0E9466070E94E10602
:102480009C01760184CFB70154E0769567955A9503
:10249000E1F788CF612F888D0E94A907BECF1F93D7
:1024A000CF93DF93162F17B818B8E82FF0E0EC5051
:1024B000FD4F249125B9962F981BE90FF11DE4914A
:1024C000E22BE4B90E94F006EC01812F0E94F00695
:1024D000AC012091AC013091AD0136952795C90131
:1024E0000397BE01625E7F4F8617970778F4255EDB
:1024F0003F4FC217D30750F4BA01625E7F4F861771
:10250000970720F481E04217530708F080E014B8E1
:10251000DF91CF911F910895CF9361E080E00E94F9
:102520004F12C82F62E080E00E944F12C80F62E095
:1025300081E00E944F128C0FCF9108955E9860ED5C
:1025400077E080E090E00E94AE0290E080E00C94A2
:10255000EA021092A60110927A0110926001109284
:102560009E01109250011092A70110924F01E2E0DB
:10257000F1E0108211821282EBE7F1E0108A82E032
:10258000818B10923001178616861482158216826E
:10259000178281EF838B089540917A01A091B00159
:1025A000B091B101E2E6F1E030E020E0822F2417A3
:1025B000B0F451911C969C911C97591719F05581B4
:1025C000951303C02F5F3F4FF1CF220F331FF90147
:1025D000E259FE4F20813181293E334008F084E1E9
:1025E00008958F929F92AF92BF92CF92DF92EF9217
:1025F000FF920F931F93CF93DF93CDB7DEB7C652F1
:10260000D2400FB6F894DEBF0FBECDBF182F062FF5
:1026100084E290E00E9476336C01E02FF0E0EC5011
:10262000FD4FE491E12FF0E0E950FD4FE49110926D
:1026300028011092290110922A0110922B01109268
:10264000270110922601109231011092320110924E
:102650003301109234018091A601813009F0E2C06B
:102660008091300118160CF4DDC018B8E7B98BE87A
:1026700091E00197F1F7006CF02E00937C000E942E
:10268000E502106C912E10937C00FE013196DE0164
:10269000A150BE4F9E01275D3F4F8F015D0180819C
:1026A00091814D915D9184179507C8F1841B950B1D
:1026B0009183808332962E173F0789F7F0927C0032
:1026C00070E060E0C8010E94B1049F5F913150F159
:1026D000903468F180E190E154E0E52EF12C28E09F
:1026E000A895E114F10409F046C080642150C1F7B7
:1026F0008115944010F18EEF8F3FE9F1E82FF0E063
:10270000EE0FFF1FE00FF11F2081318193E036951E
:1027100027959A95E1F7318320838150EDCF11827F
:102720001082C8CF80E191E0F12CE12CD8CF80E17C
:1027300094E042E0E42EF12CD2CF90927C0024E190
:102740002150C8F2822F90E0880F991FF801E80FFE
:10275000F91F408151818A0D9B1DDC018D919C9157
:102760004817590728F0481B590B51834083E8CF7D
:1027700011821082E5CF66E271E0C8010E94B104C7
:102780008C01813C9F4310F010E000E04801B12C27
:10279000A12C9801D8010E94243423E330E040E0CA
:1027A00050E00E94E333A8E6B2E00E943A34D694A7
:1027B000C794960150E040E00E94E333C701880FC0
:1027C000991F04C0220F331F441F551F8A95D2F74B
:1027D00020933101309332014093330150933401FF
:1027E00080912C0190912D01A0912E01B0912F018B
:1027F0000397A105B10540F010923101109232010A
:102800001092330110923401012B01F5109227012F
:102810001092260110923101109232011092330170
:1028200010923401CA5DDD4F0FB6F894DEBF0FBEC3
:10283000CDBFDF91CF911F910F91FF90EF90DF906F
:10284000CF90BF90AF909F908F90089527E030E099
:102850002E193F0960E074E284EF90E004C0660F37
:10286000771F881F991F2A95D2F7A5019401220F7F
:10287000331F441F551F0E94E333209328013093D8
:10288000290140932A0150932B018091300187FD4B
:10289000C9CF8FEF80933001C5CF2F923F924F92D7
:1028A0005F926F927F928F929F92AF92BF92CF92E0
:1028B000DF92EF92FF920F931F93CF93DF93CDB7E9
:1028C000DEB7C150D2400FB6F894DEBF0FBECDBF09
:1028D000782E062F642E0E94F609E72DF0E0EC50CA
:1028E000FD4F8491E02FF0E0E950FD4FE491E7B90E
:1028F00015B884B9872D806480937C000E94E5021E
:10290000262D2170CF5FDD4F2883C150D24014B8EF
:10291000C12CD12C7601212C312C210116E4812CE3
:10292000E0E89E2E163B09F411ECA12EB12CF50126
:10293000EE0FFF1F81E090E08C0F9D1FE80FF91F45
:1029400080819181CF5FDD4F2881C150D240222309
:1029500021F09401281B390BC9010E943B06280E67
:10296000391E411C511C9501DC010E942434C60E05
:10297000D71EE81EF91E1F5F173EA1F6C201B10166
:1029800026E930E040E050E00E94E333ADE4B6E5F4
:102990000E943A34C61AD70AE80AF90AA701960132
:1029A00066E056954795379527956A95D1F76CEA75
:1029B00077E485E896E80E94E33369017A0161FCD7
:1029C00017C0872D880F870D0150800F90E0880F6A
:1029D000991FCF5FDD4F3881C150D240332321F1A1
:1029E0008F5F9F4F0E947633C81AD90AE108F10819
:1029F000C701B601CF5FDD4F0FB6F894DEBF0FBE43
:102A0000CDBFDF91CF911F910F91FF90EF90DF909D
:102A1000CF90BF90AF909F908F907F906F905F907E
:102A20004F903F902F900895815F9F4FDBCF0F9382
:102A30001F93CF93DF938EE190E00E947633C09195
:102A40001201D09113018C0F9D1F9093210180934F
:102A50002001883E23E0920708F43FC0885E93403F
:102A600062E370E00E94BB33683008F067E070E01A
:102A7000660F771FFB01EA5AFE4F25913491FB0147
:102A8000E85AFE4F05911491201B310B42E3481B7D
:102A9000429FC001439F900D1124499662E370E06C
:102AA0000E94BB33600F711F70931101609310017E
:102AB0008DE190E00E946E33C80FD11D87FDDA953D
:102AC000D093AB01C093AA01D0930F01C0930E0124
:102AD000DF91CF911F910F91089590E080E0C0CFDA
:102AE0008F929F92AF92BF92CF92DF92EF92FF921E
:102AF0000F931F93CF93DF9388E893E1909308019E
:102B0000809307019093AD018093AC018EEB80938D
:102B1000A80118B880E187B98BE490E00197F1F73C
:102B200017B884E00E946607AC018B5C9840833F35
:102B30009140A0F481E08093A7012091AC013091F5
:102B4000AD01AFEBB9E00E9424349A0150E040E0BF
:102B50000E94E3333093080120930701809107011D
:102B6000909108019093AD018093AC018EE00E949A
:102B7000F0068EE00E946607909313018093120185
:102B80000E9417150E94F60918B8C1E0C7B985E17F
:102B900085B9C4B980E00E9466078C0182E0D82E16
:102BA000D7B8D4E0D4B981E00E946607080F191F96
:102BB000D7B990E1C92EC4B882E00E946607080F19
:102BC000191F15B8C8B9C7B9C4B980E00E94660713
:102BD0000E94E1067C01D8B8D7B8D4B981E00E9440
:102BE00066070E94E106E80EF91ED8B9D7B9C4B845
:102BF00082E00E9466070E94E106E701C80FD91F24
:102C000017B818B814B88091AC019091AD016C015F
:102C1000CC0CDD1CC80ED91EC01AD10ACC1ADD0A94
:102C2000F12CE12C9801A0E9BAE10E942434A7011B
:102C300096010E94E333490130932301209322013E
:102C40009E01A0E9BAE10E942434A70196010E94E6
:102C5000E33330931501209314012057354E309300
:102C600006012093050180E7881A85EE980A909264
:102C700025018092240189E18093A801DF91CF9101
:102C80001F910F91FF90EF90DF90CF90BF90AF908A
:102C90009F908F900895CF93DF934AE066E171E0B3
:102CA0000E944433EC018991882319F00E94C303E8
:102CB000FACFDF91CF910895CF93DF93EC0197FF87
:102CC00006C08DE20E94C303D195C195D1094AE0A7
:102CD00066E171E0CE010E944433EC0189918823C2
:102CE00019F00E94C303FACFDF91CF91089580912C
:102CF0009F0181110DC086E290E00E946E3361E079
:102D0000680F89E290E00E947C3381E080939F010C
:102D100008958F929F92AF92BF92CF92DF92EF92DF
:102D2000FF920F931F93CF93DF93982F990F980FD4
:102D30002FEF260F920F90930D01E82FF0E0EC504B
:102D4000FD4F0491262F30E0F901EC50FD4FC49166
:102D5000F901E950FD4FA4909091A601913009F43A
:102D60006BC090917A01E2E6F1E030E020E02917B3
:102D7000B0F4468146130FC0408148130CC0D901FE
:102D8000AA0FBB1FAE59BE4F1C964D915C914C3D96
:102D9000554008F451C02F5F3F4F3196E8CFB62E13
:102DA000182F109288011092870181EF80938D0176
:102DB00010927B0110927C0110927D0110927E0195
:102DC0000E94F60918B8A7B8C4B9C5B9812F0E94E6
:102DD000F0067C018B2D0E94F006E81AF90A14B85F
:102DE000D0E0C0E08BECC82E87E0D82E05B904B93E
:102DF0000E94E50214B815B8C6010197F1F7A8952D
:102E0000812F0E94F0064C018E189F08CE37D10505
:102E100020F08BE4881691045CF02DE2821621E00C
:102E200092060CF065C12196C43F71E0D707F1F618
:102E300017B818B814B815B8DF91CF911F910F913A
:102E4000FF90EF90DF90CF90BF90AF909F908F90CA
:102E50000895D12C00E07EC10E94F60915B887E0E4
:102E600087B918B8802F880F84B990E490937B00BD
:102E700094E590BF912F906490937C0097E190939C
:102E80007A00EBE1F3E03197F1F7109280001092B5
:102E900085001092840097E296BB85B98091A601C7
:102EA000853009F004C181E08093810081E090E0E9
:102EB000012E01C0880F0A94EAF78095877087B9C0
:102EC000F12CE12C91E086B385FD0CC080FFFBCF97
:102ED00096BBA8952FEFE21AF20A70E8E7167CE09D
:102EE000F70689F71092810090E296BBC0908600A9
:102EF000D09087002091840030918500C216D306BF
:102F000038F480FF05C081E086BB8FEFE81AF80A2D
:102F100087E980937A0014B815B8812F0E94F006D3
:102F20002091120130911301821B930B0C96909308
:102F30000C0180930B0120E4E21626E0F20608F073
:102F400077CFF0928601E0928501D0928401C09201
:102F5000830184EF80938D0172E4E716F104C8F0D9
:102F60006091830170918401809185019091860127
:102F700024E630E040E050E00E94E33320938301F8
:102F800030938401409385015093860186EF8093AE
:102F90008D01A0911001B091110120918301309118
:102FA000840140918501509186010E943A3420E4C9
:102FB00036E040E050E00E94E333209383013093F9
:102FC0008401409385015093860120937B013093C7
:102FD0007C0140937D0150937E010E94A106809167
:102FE0008D01843F09F054C0C0907B01D0907C01DA
:102FF000E0907D01F0907E0180EAC8168FE0D8064F
:10300000E104F104C0F4A70196012C543F4F4F4F47
:103010005F4F60EA7FE080E090E00E94E333C20E01
:10302000D31EE41EF51EC0927B01D0927C01E0927B
:103030007D01F0927E01C0907B01D0907C01E090F8
:103040007D01F0907E01C114D10421E0E206F1047B
:1030500098F5D0920A01C092090180910D0190E08B
:103060008A5D9F4F0E946E3390E0B0E0A0E08C1527
:103070009D05AE05BF0538F5C81AD90AEA0AFB0A4C
:10308000C0927B01D0927C01E0927D01F0927E01A2
:1030900004B980917B0190917C01A0917D01B09158
:1030A0007E014997A105B10508F4C2CE8FC081E029
:1030B00080938100A7B804CF81E090E090930A014B
:1030C00080930901CACF74E1C70ED11CE11CF11C29
:1030D000C816D906EA06FB0610F40E94771610926D
:1030E0007B0110927C0110927D0110927E01D0CF65
:1030F000209731F485E1881685E098060CF0ACCE77
:10310000D12CC12C0E94E002812F0E94F006A895CC
:103110002FEFC21AD20ACC15DD05A0F78E199F0930
:103120007401E81AF90A1E141F040CF092CE79EC0F
:10313000E716F1040CF07CCE28EE33E0D7010E94B4
:1031400033349401092C000C440B550B0E94E333DB
:10315000D22E032FC4018E0D9F1D0E94C1099E0116
:103160002F5F3F4FDC010E942434609383017093F2
:103170008401809385019093860160937B01709315
:103180007C0180937D0190937E0187EF80938D0178
:103190000E94A10620917B0130917C0140917D012C
:1031A00050917E01A8EEB3E00E943A3424E630E06C
:1031B00040E050E00E94E33320937B0130937C0198
:1031C00040937D0150937E01CD2DD02F80917A01C7
:1031D000882329F08091A601853009F029CE88E066
:1031E0008093A60180918D0190918E019817C4F073
:1031F00089131ECEC0907B01D0907C01E0907D01B0
:10320000F0907E0140917F01509180016091810199
:10321000709182014C155D056E057F0508F008CEA2
:1032200040917B0150917C0160917D0170917E0104
:1032300040937F01509380016093810170938201DC
:1032400080938E01D0938A01C0938901B0928B0143
:1032500010938C01EDCD2F923F924F925F926F921F
:103260007F928F929F92AF92BF92CF92DF92EF9216
:10327000FF920F931F93CF93DF93CDB7DEB72E97B7
:103280000FB6F894DEBF0FBECDBF142F322E202E06
:103290006B017C010F7080E389838A838B838C832D
:1032A0008D838E83F7FE53C08DE20E94C303F0949A
:1032B000E094D094C094C11CD11CE11CF11C68EEB8
:1032C000462E63E0562E612C712C033041F150E103
:1032D000452E57E2552E612C712C043001F140EA45
:1032E000442E46E8542E66246394712C0530B9F0C0
:1032F00030E4432E32E4532E3FE0632E712C06302F
:1033000071F074E6472E512C612C712C073039F482
:1033100020E8422E26E9522E28E9622E712C9AE0EE
:10332000892E912CA12CB12CC414D504E604F704E9
:10333000A0F0C701B6016B5F7F4F8F4F9F4FA50174
:1033400094010E94E33369017A011F5FEDCF25FEEE
:10335000B6CF8BE20E94C303B2CFE1E1E10F9BEA5B
:10336000E99FE12D11247E2E769486E0811B899FB2
:10337000112D11241695912F990F190F811B182FBC
:103380005E0187E0A80EB11C2AE0A501C701B601C5
:103390000E942233F50101900020E9F731976F0177
:1033A000CA18DB082C2D5601BB24812F90E004960F
:1033B0008A159B0514F473941D5FE72DF0E0E2512C
:1033C000FF4FF49024FE31C0201778F50C198C2C97
:1033D000811A800E18142CF08EE20E94C303012F74
:1033E0000C19111102C088EF882EE12C10E0A00EFC
:1033F000B11EC82C880CDD08EE2DF0E0EA15FB05A7
:10340000B4F43696E01BF10B81E090E08C0F9D1F29
:10341000E80FF91F80810E94C303E394EC141D049C
:1034200059F78EE20E94C303E7CF00E0D0CFFF2020
:1034300019F08F2D0E94C303332019F0832D0E94B1
:10344000C3032E960FB6F894DEBF0FBECDBFDF913B
:10345000CF911F910F91FF90EF90DF90CF90BF9091
:10346000AF909F908F907F906F905F904F903F9024
:103470002F9008950F9382E692E00E94E703409117
:103480008D014D3F74F460917B0170917C018091BE
:103490007D0190917E0103E026E40E942B190F919B
:1034A00008958FE30F910C94C3032F923F924F9294
:1034B0005F926F927F928F929F92AF92BF92CF92C4
:1034C000DF92EF92FF920F931F93CF93DF93CDB7CD
:1034D000DEB768970FB6F894DEBF0FBECDBF8D8301
:1034E00069838091A601883061F510918E01209149
:1034F0007F013091800140918101509182016AE009
:10350000C62ED12CE12CF12C173F44F4CA01B9018D
:10351000A70196010E94E3331F5FF6CF8FEF9FEF65
:103520002A3531054105510508F4B3C1173F49F467
:1035300069017A0101E0C0160DE7D006E104F1044B
:1035400028F0C12C3DE7D32EE12CF12C19811B8BE7
:103550000D810C8B212F30E03E832D83F901E95042
:10356000FD4F8490402F50E058874F83FA01E95077
:10357000FD4F9490F901EC50FD4FB490FA01EC50DE
:10358000FD4FA490106C1F8B006C088F0E94F609F1
:1035900018B810937C000E94E50297B8B5B8B4B88B
:1035A00083E290E00197F1F70000000014B815B82D
:1035B00087ED80937A0080917A0086FDFCCF9FEFA3
:1035C00001E010E020E030E009871A872B873C8774
:1035D00019821A821B821C8241E050E060E070E098
:1035E000412C512C320187ED2BE0222E312CA3E20D
:1035F000B0E087B8B5B8B4B81F8910937C00809349
:103600007A0020917A0026FDFCCF80937A002091E9
:103610007A0026FDFCCF20917800309179003E871A
:103620002D87088D00937C0080937A0020917A008A
:1036300026FDFCCF80937A00F1013197F1F7A5B810
:10364000A4B8FD013197F1F7EFE0F0E03197F1F721
:10365000F1013197F1F7000014B815B820917A0004
:1036600026FDFCCF2091780030917900388B2F8790
:10367000A89597B8A5B8A4B8A895088D00937C0024
:1036800080937A0020917A0026FDFCCF80937A0007
:1036900020917A0026FDFCCF2091780030917900AE
:1036A0003A8B298B0F8900937C0080937A002091BC
:1036B0007A0026FDFCCF80937A00F1013197F1F773
:1036C000B5B8B4B8FD013197F1F7EFE0F0E031970C
:1036D000F1F7F1013197F1F7000014B815B8209116
:1036E0007A0026FDFCCF20917800309179003E8B46
:1036F0002D8B09851A852B853C85ED85FE850E0F62
:103700001F1F211D311D09871A872B873C870981BF
:103710001A812B813C81EF85F8890E0F1F1F211D17
:10372000311D09831A832B833C8309891A89400F31
:10373000511F611D711D2D893E89420E531E611C52
:10374000711C915009F055CF89849A84AB84BC8454
:10375000840E951EA61EB71E8C890E9485048B8937
:103760000E94850480E20E94C30304E02CE440E050
:10377000C501B4010E942B1982E08093B40180E955
:103780000E94A2031092B20128E640E069817A818A
:103790008B819C810E942B1980E20E94C30328E444
:1037A00040E0C301B2010E942B1983E08093B40171
:1037B00080ED0E94A2031092B20189819A81AB81AF
:1037C000BC81480E591E6A1E7B1E84149504A604F3
:1037D000B70408F077C0481859086A087B08809138
:1037E000A6018830B1F4A70196012D5E3F4F4F4FDF
:1037F0005F4FC701B6010E949F339B01AC0166E396
:1038000079E286E89AE10E94E333421A530A640A95
:10381000750A04E024E640E0C301B2010E942B19BE
:1038200080E20E94C3032091220130912301AAE08B
:10383000B0E00E9424349B01AC01C301B2010E949C
:103840009F33A5019401240D351D461D571D0E946F
:10385000E3338901C9016EE070E00E94BB33DB01F4
:10386000A00FB11FBA83A9838D819E81EF81F88556
:103870008E0F9F1F805E9F4F0E946E33082E000C9C
:10388000990B09811A818017910700F5081B190B04
:10389000C80168960FB6F894DEBF0FBECDBFDF91AA
:1038A000CF911F910F91FF90EF90DF90CF90BF903D
:1038B000AF909F908F907F906F905F904F903F90D0
:1038C0002F900895412C512C320189CF09811A8102
:1038D0000C5E1F4F0817190748F415E9C11611E1CE
:1038E000D106E104F10410F00E94771690E080E028
:1038F000D0CF0F93062FBC0190E080E026E54DEF7E
:103900000E942B190F910895863068F4E82FF0E09B
:10391000EE0FFF1FE259FE4F63E0808191810E940C
:10392000791C0C9409040895CF93C82F80914F01FE
:10393000882329F00E94090480E00E94C3030E94AA
:10394000AB0388E493E00E94E7038C2F82958F708D
:103950000E94841C8C2F8F70CF910C94841CCF9369
:10396000C09161018C2F82958F700E941F068C2F51
:1039700083700E9411068C2FCF910C94941C0F938E
:10398000362FBC0190E080E0022F242F432F0E94AD
:103990002B190F9108950E947B0482ED93E00E9401
:1039A000E703E091B001F091B10122E044EF6FEF45
:1039B000848195810C94BF1C7F928F929F92AF92CD
:1039C000BF92CF92DF92EF92FF920F931F93CF930C
:1039D000DF93D82E0E94B403C0918B018C2F0E94DC
:1039E00085048BE992E00E94E70300918901109120
:1039F0008A010115110509F0A0C0EC2FF0E0E95093
:103A0000FD4FD491E0918C01F0E0EC50FD4FC4915A
:103A10000E94F60918B815B8D7B9C4B980918C01BD
:103A20000E94F0067C01D0918E018CE08D0F8430D5
:103A300008F083C080917F0190918001A091810165
:103A4000B0918201D15F2AE0822E912CA12CB12C61
:103A5000BC01CD016B5F7F4F8F4F9F4FA50194013C
:103A60000E94E333722EC32E822F932FDA01DF5F81
:103A7000D73071F7893823E19207A105B10508F025
:103A80005CC08530910508F458C0C5B9C4B9BC0103
:103A900090E080E02FE030E08617970728F4F901E6
:103AA0003197F1F70296F8CF14B815B8A89585E0CC
:103AB0008093A801B0908C018B2D0E94F006EC0140
:103AC000CE19DF09E816F90610F0D0E0C0E0872D26
:103AD0009C2D30E020E04FE050E08217930731F05A
:103AE000FA013197F1F72F5F3F4FF7CF8B2D0E94EF
:103AF000F00629E12093A801A895E816F90618F424
:103B00008C010E191F090C171D0788F49E01201B3C
:103B1000310B69F0A4EFB1E00E9424349E0150E023
:103B200040E00E94E33330938A01209389010E9490
:103B3000F60917B818B814B815B860918B018091C0
:103B40008C010E94551A7C01909388018093870113
:103B5000C0918901D0918A018AEFE8168FEFF806AB
:103B600040F4209711F0DD2021F084E293E00E94E0
:103B7000E70380918C010E948504DD2009F450C088
:103B80009091B2018DE0891B0E940C048FE992E0B4
:103B90000E94E7030E94AB0360917F017091800156
:103BA000809181019091820104E026E440918E0190
:103BB0000E942B192AEFE2162FEFF20668F48DE827
:103BC00092E00E94E70322E044EF6EEF80918701CC
:103BD000909188010E94BF1C0E941604DD2089F08C
:103BE000CD2B79F00E947B0484E992E00E94E703E8
:103BF00022E045E26FEF8091890190918A010E9455
:103C0000BF1CDF91CF911F910F91FF90EF90DF903C
:103C1000CF90BF90AF909F908F907F900C941604A0
:103C2000209751F083E992E00E94E70322E045E209
:103C30006FEFCE010E94BF1C0E941604ABCF0F9302
:103C40001F93CF93DF93C0E0D8E012EF0DE00E9406
:103C5000A91260E082E00E948916D093A6018091AB
:103C60008D01843FE1F480917B0190917C01A091D2
:103C70007D01B0917E0184369105A105B10578F4EE
:103C800040E060E082E00E944D1460937B017093FD
:103C90007C0180937D0190937E0110938D01809132
:103CA0008D01823F44F180938E0180917B01909140
:103CB0007C01A0917D01B0917E0180937F01909362
:103CC0008001A0938101B093820181E00E94DC1CFD
:103CD00080ED97E00E94EA02811107C08C2F0E94BC
:103CE0002503C82F8A3F08F4B2CFDF91CF911F91EF
:103CF0000F910C94BC030E94B40383EA92E00E94EB
:103D0000E7038091B201902F981B892F0E940C0429
:103D10008FE992E00E94E7030E94AB038FE30E94C9
:103D2000C3030E941604D4CF0F93282F84E0289F4A
:103D3000F0011124E05CFE4F6081718182819381EA
:103D4000643671058105910598F43091300137FD95
:103D50000FC0822F0E946E07682F892F0E94551A6C
:103D600023E044EF6EEF0E94BF1C0F910C940904F6
:103D700004E024EF4FEF0E942B19F7CF2F923F92D0
:103D80004F925F926F927F928F929F92AF92BF926B
:103D9000CF92DF92EF92FF920F931F93CF93DF9317
:103DA000CDB7DEB76B970FB6F894DEBF0FBECDBFB1
:103DB0008B8B6C8B4D8B0E94850483E293E00E9479
:103DC000E70382E0809330018091A601813009F001
:103DD000F4C180914F01813009F0EFC180914C0115
:103DE00024E0829FF0011124E05CFE4F80809180EE
:103DF000A280B38039E0831632E59306A104B104B2
:103E000008F0DBC10E946E078E8B9F8B10E07E88CE
:103E10006F88123010F07F886E88E62DF0E0E95050
:103E2000FD4F5490872D90E0FC01EC50FD4FE49144
:103E300015B818B8012F017020EF8216910408F010
:103E400051C201114FC2209024013090250130E968
:103E5000231A3AE1330A21E030E0072C02C0220F96
:103E6000331F0A94E2F7C901852987B984E1482EF6
:103E7000872D0E945E075C01862D0E94F00634E0CB
:103E8000A316B10410F4049718F04A944110F0CF2F
:103E900080E480937B0084E580BF872D80648093DD
:103EA0007C0087E180937A00F12CE12C1092800055
:103EB000109285001092840087E286BB8BE193E02C
:103EC0000197F1F7812F90E09A8B898B011111C234
:103ED00081E88093810058B886B385FD0CC080FFCF
:103EE000FBCF21E026BBA89597012F5F3F4F7901BB
:103EF000203A310589F718B81092810030E236BBBC
:103F00002091860030918700690140918400509192
:103F100085002417350738F480FF05C081E086BB93
:103F20009FEFE91AF90A87E980937A00B4E15B2EE2
:103F3000872D0E945E075C01862D0E94F00624E01A
:103F4000A216B10410F4049718F05A945110F0CF4F
:103F50004090220150902301480C591C420C531CE4
:103F6000712C612CA0902001B090210130E9231622
:103F70003AE1330608F0C8C169E181EEC816D10400
:103F8000E104F10430F4C60165E070E00E94BB3347
:103F9000645198E2A91AB1089501261B310967FD01
:103FA000339586E090E0B0E0A0E08C159D05AE056D
:103FB000BF0508F0B7C1C81AD90AEA0AFB0A0023EC
:103FC00029F08AE3C80ED11CE11CF11C90EAE91625
:103FD000F10418F0C12CD12C76018BE0C816D10465
:103FE000E104F10428F091E0C91AD108E108F108D0
:103FF000A8EEB3E00E942434688F798F8A8F9B8F5C
:10400000A091AC01B091AD0191010E942434A301B3
:1040100092010E94E33344275527688D798D8A8D5C
:104020009B8D0E94E333C9010E948804FC01A30117
:104030009201C701B6010E949F332B013C01BF01D1
:1040400090E080E0E4E0660F771F881F991FEA95F3
:10405000D1F76B5F7F4F8F4F9F4F2AE030E040E0FA
:1040600050E00E94E33344275527C301B2010E9468
:10407000E333E989FA89EE0FFF1FEE0FFF1F81E09E
:1040800090E08C0F9D1FE80FF91F2083318342833E
:104090005383011118C094E1C916D104E104F1045D
:1040A00090F01F5FE989FA893196EE0FFF1FEE0F3E
:1040B000FF1F81E090E08C0F9D1FE80FF91F208308
:1040C000318342835383A8951F5F143008F49FCE39
:1040D00018B864E170E080E090E00E94AE0291E0E8
:1040E0000D811E812F81388549815A816B817C81A8
:1040F000401751076207730708F090E00D851E8591
:104100002F85388949855A856B857C8582E04017E3
:1041100051076207730708F483E024E0829FD0010F
:10412000112421E030E02C0F3D1FA20FB31FE92F17
:10413000F0E0EE0FFF1FEE0FFF1FE20FF31F0D91D8
:104140001D912D913C9140815181628173810417B1
:1041500015072607370708F0892F34E0839FF00101
:10416000112421E030E02C0F3D1FE20FF31F4081AE
:1041700051816281738140932C0150932D01609392
:104180002E0170932F0180FDD1C030EF8316910472
:1041900008F0CCC08BEF8093300180912C0190917E
:1041A0002D01A0912E01B0912F01892B8A2B8B2BF1
:1041B00011F41092300117B814B86C898B890E94E1
:1041C000F112C0903101D0903201E0903301F090B3
:1041D00034018091300187FD05C0C114D104E10490
:1041E000F10421F083E792E00E94E7038C890E94AA
:1041F0008504C114D104E104F10409F4D2C00E9481
:10420000090480914C010E94941E8D89882309F431
:10421000C5C08091B2018D3030F48650990B895819
:104220009D4F0E94E7030E947B04CD28CE28CF2813
:1042300009F4BCC060913101709132018091330169
:104240009091340103E028E447EF0E942B198DE69A
:1042500092E00E94E70384E290E00E94763322E03D
:1042600046E464EF0E94BF1CC0902801D090290151
:10427000E0902A01F0902B01C114D104E104F10473
:1042800009F46CC00E947B0404E028E440E0C7010C
:10429000B6010E942B1985E692E00E94E70323E015
:1042A00040E26FEF80912601909127010E94BF1C90
:1042B0006B960FB6F894DEBF0FBECDBFDF91CF91E6
:1042C0001F910F91FF90EF90DF90CF90BF90AF9034
:1042D0009F908F907F906F905F904F903F902F9026
:1042E0000C941604E4B957B82090240130902501AD
:1042F000BDCD58B887E090E00197F1F790E296BB0A
:1043000081E880938100E8CDC301B20128E53BE15B
:1043100040E050E00E94E33387E0820F9501285D82
:104320003F4F40CEC12CD12C760149CE8CEF8093EB
:104330003001CB01BA016B5F7F4F8F4F9F4F2AE057
:1043400030E040E050E00E94E33320932C013093B2
:104350002D0140932E0150932F011FCF0E941C046A
:104360008091B301882309F4A3CF6B960FB6F8941C
:10437000DEBF0FBECDBFDF91CF911F910F91FF9098
:10438000EF90DF90CF90BF90AF909F908F907F90F5
:104390006F905F904F903F902F9008950E947B0404
:1043A00049CF9D89911135CF0E947B0480914C01AA
:1043B0000E94941E109130011E3F0CF055CF8AE6EA
:1043C00092E00E94E70360912C0170912D01809191
:1043D0002E0190912F0103E028E4412F0E942B1918
:1043E00043CFCF9382E892E00E94F603C0E00E94A0
:1043F000A91260E082E00E94A90762E080E00E94CA
:10440000A9070E94B40380914F018823A1F041E0E5
:1044100062E080E00E94BE1E88EE93E00E94EA0205
:10442000811106C08C2F0E942503C82F8A3FF8F205
:10443000CF910C94BC0382E892E00E94E7038BE7E3
:1044400092E00E94E7030E94AB038FE30E94C30344
:104450000E941604E1CF2F923F924F925F926F928B
:104460007F928F929F92AF92BF92CF92DF92EF9204
:10447000FF920F931F93CF93DF93CDB7DEB72F97A4
:104480000FB6F894DEBF0FBECDBFB82E1092A601B6
:10449000807F06E910E0A1F50E948C12833009F0BC
:1044A000B5C40E94BC038EED90E00E94E7030E9419
:1044B000AB038FE30E94C30380ED97E00E94EA0202
:1044C0008B3068F50E94BC0387EB93E02F960FB604
:1044D000F894DEBF0FBECDBFDF91CF911F910F913A
:1044E000FF90EF90DF90CF90BF90AF909F908F9014
:1044F0007F906F905F904F903F902F900C94E703C8
:104500000E94BC0380ED90E00E94E7030E948C12A1
:10451000833009F06EC01F5F143008F46BC00E9436
:10452000AB030E9470158DEE91E00E94E70360E0FE
:1045300082E290E00E947C3360E083E290E00E949F
:104540007C3360E081E290E00E947C3360E082E0B6
:104550000E94551A6C019A83898361E082E00E946F
:10456000551A7C019C838B8360E081E00E94551A80
:104570008C019E838D8323E040E26EEFC6010E9492
:10458000BF1C23E040E26EEFC7010E94BF1C23E086
:1045900044EF6EEFC8010E94BF1C2AE5C216D10489
:1045A00024F084E190E09A838983698182E290E03B
:1045B0000E947C338AE5E816F10424F084E190E05F
:1045C0009C838B836B8183E290E00E947C330A356D
:1045D000110524F084E190E09E838D836D8181E25A
:1045E00090E00E947C3382E08093B3010E94380403
:1045F0000AC010E068EC70E080E090E00E94AE023B
:10460000015009F07DCFEB2DEF70EF87E13009F01D
:104610005CC0EE24E394F12CF8EB8F2EF2ED9F2E8C
:10462000F7E4AF2EB12C02E0A8E0DA2EB0E23B2E88
:10463000C12C1E2D70E3272E0E947F040E94B4031C
:104640000E9416040E94B40384E50E94C303C701BC
:104650000E944B160E940904113009F0A3C18BEC93
:1046600090E00E94E70364E08091120190911301B1
:104670000E94791C0E94AB0386EC90E00E94E70345
:1046800080911001909111010E944B168EEB809346
:10469000A80117B818B814B815B888EE93E00E94AE
:1046A000EA02143011F08B3020F4C39484E0C81275
:1046B000C3CF88EE93E00E94EA02EFEFEE1AFE0A03
:1046C000F8E0EF16F10409F0B3CF18E70E948C125E
:1046D000882371F00E947F048AE990E00E94E7033A
:1046E00064EF71E080E090E00E94AE02115071F73B
:1046F0000E94BC0386EE91E00E94E70323E044EFB2
:104700006FEF80911401909115010E94BF1C0E94CF
:10471000AB038FED91E00E94E70323E044EF6FEFDE
:1047200080912201909123010E94BF1C82E080931E
:10473000B3010E9438041092A6010E94BC038BEDC5
:1047400091E00E94E70360E082E00E948916809079
:10475000830190908401A0908501B09086019C8691
:104760008B8661E082E00E948916C0908301D09020
:104770008401E0908501F0908601DE86CD8660E0C0
:1047800081E00E94891600918301109184011E83AB
:104790000D8362E080E00E948916809183019091F0
:1047A00084019C838B8362E081E00E948916809162
:1047B0008301909184019A87898761E080E00E945B
:1047C000891680918301909184019A8389832F8532
:1047D000213029F020919F01223009F0DAC10296A0
:1047E00098878F83C4010E944B160E940904C6015A
:1047F0000E944B160E940904B801110F880B990BF7
:1048000003E026E444EF0E942B198E010F5F1F4F37
:104810009E01215F3F4F7801F701819191917F01C6
:104820000A97853B9105D8F42E173F07A9F756E262
:10483000C52E50E0D52EF80160810E5F1F4F6E5ED1
:10484000C6010E947C33FFEFCF1ADF0A0E151F0549
:1048500091F70E94AB0389E890E00E94E70382E0B1
:104860008093B3010E94380410E0D12EDD0CD10EEC
:1048700000E0DA94101709F440C042E0602F812F65
:104880000E944D142B0143E0602F812F0E944D1494
:104890004B010E94BC0385EC91E00E94E7030E945B
:1048A0000904812F0E9485048AE30E94C303802F9C
:1048B0000E9485040E9409040E94AB0324E040E2A8
:1048C0006EEFC2010E94BF1C24E046E462EFC40107
:1048D0000E94BF1CED2CE00EF12CEE0CFF1CB2016F
:1048E000C701815F9F4F0E948A33B401C7018F5F68
:1048F0009F4F0E948A330E9416040F5F033009F015
:10490000B9CF1F5F133009F0B0CF0E94B40389E81C
:1049100090E00E94E7030E94160468EC70E080E0DB
:1049200090E00E94AE022F85213029F080919F01F6
:10493000823009F0D9C10E94BC0381E30E94C30305
:104940008BE992E00E94E70383E30E94C30381E8BE
:1049500090E00E94E70320E4E22EF12C3AE0432E9F
:10496000512C612C712C0E94A9121092A60160E0BA
:1049700082E00E94891610918D0180907B019090B9
:104980007C01A0907D01B0907E01173F0CF009C121
:104990001F5FC501B401A30192010E94E3334901E5
:1049A0005A01F3CF123099F52091AC013091AD014D
:1049B000A8E5BBE10E94243424EC36E340E050E05B
:1049C0000E940534290181E085B9F5E0F4B980E061
:1049D0000E945207841995099A83898381E184B9D9
:1049E00080E00E945207841995099C838B8384E0A0
:1049F00085B984E184B981E00E9452078419950940
:104A00009E838D8388EB90E00E94E70338C01330CB
:104A100061F505B92AE024B980E00E94520720918F
:104A2000AC013091AD013695279538872F83821BD5
:104A3000930B9A83898382E284B980E00E945207B3
:104A40002F813885821B930B9C838B83D5B8E8E23A
:104A5000E4B981E00E9452072F813885821B930BB5
:104A60009E838D838AEA90E0CFCF1430D9F48AE90F
:104A700090E00E94E7030E948C128111C4C10E9441
:104A8000AB0389819A810E945C160E9409048B8184
:104A90009C810E945C160E9409048D819E810E9467
:104AA0005C16F7CD1530B1F415B804B980E00E945A
:104AB00052079A838983D4B881E00E9452079C836D
:104AC0008B8334B882E00E9452079E838D8386E9EF
:104AD00090E09ACF163051F504B905B980E00E94F4
:104AE00052072091AC013091AD01821B930B9A8348
:104AF0008983D4B8D5B881E00E9452072091AC01D7
:104B00003091AD01821B930B9C838B8334B835B8F5
:104B100082E00E9452072091AC013091AD01821BCE
:104B2000930B9E838D8382E990E06ECF173069F5F9
:104B30002091AC013091AD01A8E5BBE10E94243485
:104B4000A50194010E94E333290105B9F3E0F4B90A
:104B500080E00E945207841995099A838983D5B809
:104B60002CE024B981E00E945207841995099C83A6
:104B70008B8335B824B882E00E94520784199509C6
:104B80009E838D838CE890E03FCF113009F077CF82
:104B900080CD98878F8310929F018CE00E94A203A2
:104BA00021CE10938D0180927B0190927C01A09286
:104BB0007D01B0927E01173F09F008C1D501C40103
:104BC00080569109A109B10980399545A105B10522
:104BD00008F0FCC060910B0170910C01CB018B5669
:104BE0009F4F8B32914008F0F1C0F39424E02F15D1
:104BF00008F0EDC08EE190E00E948A330E94BC0371
:104C000084ED91E00E94E70380910B0190910C01EB
:104C10000E945C160E94171518B881E087B980E2DF
:104C200084B982E00E94F006853D9340D4F714B821
:104C30001092AB011092AA0182E00E94F0067C0162
:104C4000C0900E01D0900F01D092AB01C092AA018A
:104C500082E00E94F0065C01AA0CBB1C1092AB0122
:104C60001092AA0182E00E94F0064C01D092AB01A2
:104C7000C092AA010E94AB038DEC91E00E94E70371
:104C80008DE190E00E946E33182FD701A80DB91D59
:104C9000AA19BB0996010E9433349501BB0C440B41
:104CA000550B0E9405341D5F120F612F8DE190E0BE
:104CB0000E947C33812F110F990B0E945C160E9479
:104CC000171582E08093B3010E94380410929F016F
:104CD0008CE00E94A20386E290E00E946E33682F6F
:104CE00089E290E00E947C3389E18093A8010E94D0
:104CF000B40388E690E00E94E7030E94160400E0F7
:104D000010E010920A011092090164E670E080E060
:104D100090E00E94AE0262E080E00E9489160E944C
:104D2000AB0324E046E464EF8091090190910A010D
:104D30000E94BF1C6091090170910A01CB018C5344
:104D40009F408539954708F057C01F5F153008F41C
:104D500054C084E290E00E948A330E94090489E8EA
:104D600090E00E94E70364EF71E080E090E00E9431
:104D7000AE020E94B4030E94BC0387EB93E00E9442
:104D8000E7030E94AB0388E790E00E94E7031092DC
:104D9000A60182E08093B3012F960FB6F894DEBF90
:104DA0000FBECDBFDF91CF911F910F91FF90EF907C
:104DB000DF90CF90BF90AF909F908F907F906F903B
:104DC0005F904F903F902F900C943804F12C0E94EC
:104DD000AB0304E026E4412FC501B4010E942B1966
:104DE0000E94160468EC70E080E090E00E94AE0241
:104DF000EA94E110B8CD78CF10E00E94160401507B
:104E000009F07FCFB6CF82E0C82E39CE2F960FB6ED
:104E1000F894DEBF0FBECDBFDF91CF911F910F91F0
:104E2000FF90EF90DF90CF90BF90AF909F908F90CA
:104E30007F906F905F904F903F902F9008952F92AA
:104E40003F924F925F926F927F928F929F92AF921A
:104E5000BF92CF92DF92EF92FF920F931F93CF9367
:104E6000DF93CDB7DEB72A970FB6F894DEBF0FBE3B
:104E7000CDBF81EF91E00E94F6031982212C0E94A0
:104E8000AB0349E086EF820D421508F0822D8111B7
:104E900031C086E891E00E94E7030E94160480E496
:104EA0009FE10E94EA0281114CC529812F5F29836D
:104EB0002436D1F480E02A960FB6F894DEBF0FBEF8
:104EC000CDBFDF91CF911F910F91FF90EF90DF90B9
:104ED000CF90BF90AF909F908F907F906F905F909A
:104EE0004F903F902F90089529E0221540F636EF1D
:104EF000230EC5CF813019F481E991E0CCCF823007
:104F000019F48DE991E0C7CF833019F488EA91E074
:104F1000C2CF843019F482E892E0BDCF853019F415
:104F200083EA92E0B8CF863019F484EB91E0B3CFF6
:104F3000873019F48DE791E0AECF883019F483E71C
:104F400091E0A9CF893009F0A8CF88E691E0A3CFFE
:104F5000222009F4AFCF51E025127BC181E991E015
:104F60000E94F60380E18093800010926F0081E040
:104F700090E0909389008093880010928B001092AB
:104F80008A0083E086BB1092820088E080938100D3
:104F900015B881E184B918B827B8229A89E08093BE
:104FA000810081E088879AE09983812C912C5401BB
:104FB0008394E1E1E9871B82312C832D90E00A96EE
:104FC0006EE170E00E94CF33062FF62EFB816F1743
:104FD00089F00E94B40381E991E00E94E70310E0A8
:104FE0001F1528F48EE20E94C3031F5FF9CF0E94B1
:104FF00016040B83888569810E94AF33A92FB0E026
:10500000A50194010E943A346B017C01298522316B
:1050100058F06C817D818E819F8194010E94E333E1
:10502000C60ED71EE81EF91E0E94AB0338854981C3
:10503000341307C05985523108F0ADC01A828EE38F
:1050400005C089851A828631D0F382E50E94C303A8
:10505000098528E440E0C701B6010E942B198AE7C0
:105060000E94C3030E940904C701B6017C5D8B4006
:105070009F4FA7019601220F331F441F551F0E9407
:10508000E333CA014F3F510509F008F488C08DE0B1
:105090008093810080E094E02C01712C612CCA0186
:1050A000B901A30192010E94E333215031093093E9
:1050B0008900209388008091880090918900892B35
:1050C00031F4E1E0F0E0F0938900E0938800009192
:1050D00088001091890060E072E18AE790E0A30106
:1050E00092010E940534A4E6B0E00E943A340F5FBA
:1050F0001F4F980150E040E00E94053429013A0119
:10510000A4E6B0E0A70196010E943A34A3019201FF
:10511000261B370B480B590BCA01B90102E228E4E0
:105120004EEF0E942B198AE70E94C3030E941604C7
:1051300080ED97E00E94EA02882309F46AC0883C67
:1051400008F07AC0813508F45EC03A81332309F44F
:1051500046C0498541504987C501B4012AE030E085
:1051600040E050E00E94E33349015A01C701B60113
:105170000E94E333CA01B9012AE030E040E050E088
:105180000E94E33368875AE05983312CCC82DD8258
:10519000EE82FF8212CF91E09A838CE357CF4034A6
:1051A000510530F08CE08093810080E091E074CF75
:1051B0004830510530F08BE08093810080E490E02E
:1051C0006BCF892B31F08AE08093810088E090E0FA
:1051D00063CF89E08093810081E090E05DCF898595
:1051E000863108F0BCC38F5F8987863111F495E161
:1051F0009983AAE0B0E0A50194010E943A344B01E2
:105200005C011886C2CF8B3018F0E885EF5FE88725
:10521000312CF8858F2F90E02981622F70E06F5F2D
:105220007F4F0E94CF338887832D0E942503382E1D
:105230003FEE381708F0AACF10928100109280003C
:1052400017B814B8229881EF91E00E94F6031982F2
:105250002CCE42E0241288C08DE991E00E94F60332
:1052600083E28093800010926F008FEF90E0909324
:105270008B0080938A0083E086BB1092820015B871
:1052800081E184B918B881E087B9229A81E090E081
:10529000909389008093880089E08093810010E0DA
:1052A00080E052E359831A8299819817E9F1943684
:1052B00010F094569983E9812E2F30E0AFEFB3E0E0
:1052C0000E9424346E5C7F4F8F4F9F4F24E630E066
:1052D00040E050E00E94E33369017A0130938B0093
:1052E00020938A000E94AB03A8EEB3E0A7019601C9
:1052F0000E943A3461507E4F8F4F9F4F2FEF33E023
:1053000040E050E00E94E333C90125E045E26FEF41
:105310000E94BF1C0E941604193230F06CE271E04A
:1053200080E090E00E94AE0280E496E00E94EA02F3
:10533000182F833868F40981833390F0065F1A824E
:105340008A810E9425038A838981FA81F03F30F0A7
:1053500017B8109281001092800073CF0983A4CFF8
:10536000882371F30F5FEBCF23E0221276C188EA26
:1053700091E00E94F603F12C68E2862E912C78EEE3
:10538000A72E73E0B72E1092A601E7EFF2E0F4919A
:10539000FA83E6EFF2E01491E4EFF2E0F491F9839E
:1053A000109288011092870110927B0110927C016B
:1053B00010927D0110927E0187EF80938D010E94F3
:1053C000F60918B82A8127B9398134B935B982E08C
:1053D0000E94F0066C0180E00E94F006C81AD90A0B
:1053E00014B830E020E01A8619860AE054E6E52E6B
:1053F00015B9E985FA85EF2B89F0ECE2F1E0E21BC3
:10540000F30B029FC001039F900D112469857A85DB
:105410000E94BB33E617F70708F0E5C014B98BE12B
:1054200093E00197F1F714B829853A852F5F3F4F34
:105430003A87298715B883EC90E00197F1F7A89592
:1054400082E00E94F0069C012C193D0949855A858D
:105450004B31564020F0253231050CF473C02D320B
:1054600091E039070CF468C049855A8541305105EF
:1054700029F42531E5E03E070CF064C0C901B40110
:105480000E94CF33CB01820F931F0E94C10929854F
:105490003A85220F331FDC010E942434609383017C
:1054A00070938401809385019093860160937B01C2
:1054B00070937C0180937D0190937E010E94A106F0
:1054C00040907B0150907C0160907D0170907E0146
:1054D00080E090E00E946E33D501A81BB10987FDE2
:1054E000B395A30192010E94453420E137E240E0E8
:1054F00050E00E94E33320937B0130937C01409382
:105500007D0150937E0188E08093A60120937F0166
:1055100030938001409381015093820180918D01ED
:1055200080938E0110928A011092890110928B0152
:1055300082E080938C0106C049855A85443D5043E2
:1055400008F456CF17B818B814B815B88091A6014A
:10555000883009F077C00E94B40383E40E94C3033B
:105560008DE30E94C30360917F017091800180915F
:1055700081019091820103E026E440918E010E9416
:105580002B190E94160460918B0180918C010E945E
:10559000551A9A87898790938801809387010E9482
:1055A000AB038EE892E00E94E70329853A852A3F03
:1055B0003F4F08F043C022E044EF6EEF89859A85A3
:1055C0000E94BF1C0E94160488EE93E00E94EA022B
:1055D000811139CE8F2D0E942503F82E59EF5817CF
:1055E00008F0D1CE30CE49855A854B305105D0F0E8
:1055F000E29EC001E39E900D1124BA010E94BB33CC
:105600006E177F0778F414B964E170E080E090E0F1
:105610000E94AE0214B889859A858C599F4F9A874B
:10562000898708CF14B98BE39FE10197F1F714B88C
:10563000E985FA853A96FA87E987FCCE8FE30E94DE
:10564000C303C0CF0E94B40388EA91E00E94E7033D
:105650000E9416040E947F04B7CF84E0281203C082
:105660000E94F121F0CD95E0291205C00E94BC03F3
:105670000E941F1EE8CDE6E02E1244C084EB91E0AC
:105680000E94F60380E090E00E946E33182F00E045
:105690000E94AB03212F012E000C330B3A87298780
:1056A00017FF24C08DE20E94C30323E045E26FEFA1
:1056B00089859A859195819591090E94BF1C0E94C8
:1056C000160480E496E00E94EA0281113FC1113580
:1056D000ACF01556802F0E942503082F803FC0F2A2
:1056E000612F80E090E00E947C33ADCD23E045E265
:1056F0006FEF89859A85E1CF11502FC11C3E54F779
:105700001B59E8CF37E0231204C081E10E942B220D
:105710009ACD48E024120FC10E94BC0387EB93E0AE
:105720000E94E7030E94AB038DEE91E00E94E70325
:1057300082E290E00E946E3323E040E26EEF90E060
:105740000E94BF1C83E290E00E946E3323E040E29F
:105750006EEF90E00E94BF1C81E290E00E946E33E9
:1057600023E044EF6EEF90E00E94BF1C88E99AE3CB
:105770000E94EA020E94BC0386EE91E00E94E703C9
:1057800023E044EF6FEF80911401909115010E9486
:10579000BF1C0E94AB038FED91E00E94E70323E062
:1057A00044EF6FEF80912201909123010E94BF1C72
:1057B00088E99AE30E94EA020E94BC038BED91E023
:1057C0000E94E7038BE290E00E946E338251990BB6
:1057D0000E944B160E9409048CE290E00E946E33F6
:1057E0008251990B0E944B160E94090488E290E0B6
:1057F0000E946E3323E046E464EF8251990B0E94CD
:10580000BF1C0E94AB0383E00E940C0487E290E07F
:105810000E946E338251990B0E944B160E9409041C
:105820008AE290E00E946E338251990B0E944B16DF
:105830000E94090486E290E00E946E3323E046E471
:1058400064EF8251990B0E94BF1C88E99AE30E9481
:10585000EA020E94BC0384ED91E00E94E7038EE11E
:1058600090E00E9476330E945C160E94AB038DECA0
:1058700091E00E94E7038DE190E00E946E33082ED4
:10588000000C990B0E945C161092B20180EC0E94F1
:10589000A203F12CDF2CDD0CDF0CE12CDA94FE14DA
:1058A000D9F15D2D5E0D852F90E0880F991F9A87A5
:1058B0008987815F9F4F0E9476338C0189859A8505
:1058C0008F5F9F4F0E9476339A8789878091B401BA
:1058D000882371F188E99AE30E94EA020E94BC03DE
:1058E00085EC91E00E94E7038F2D0E9485048AE3F6
:1058F0000E94C3038E2D0E9485040E941C0423E095
:1059000040E26EEFC8010E94BF1C23E046E462EF54
:1059100089859A850E94BF1CE394E3E0EE12BFCF15
:10592000F394FE12B7CF88E99AE30E94EA028BCC87
:105930000E941C04D5CFF9E02F1285CC0E949E1244
:1059400082CC823308F004CB239481CC823808F0D7
:10595000C7CE893208F4D0CE1F5F00E0B8CE51E048
:1059600058878AE08983812C912C5401839491E19A
:1059700099870BCC1F920F920FB60F9211242F9381
:105980003F938F939F93AF93BF93809138019091F2
:105990003901A0913A01B0913B013091370123E0E8
:1059A000230F2D3758F50196A11DB11D2093370106
:1059B0008093380190933901A0933A01B0933B0151
:1059C00080913C0190913D01A0913E01B0913F0139
:1059D0000196A11DB11D80933C0190933D01A093C0
:1059E0003E01B0933F01BF91AF919F918F913F9145
:1059F0002F910F900FBE0F901F90189526E8230F40
:105A00000296A11DB11DD2CF1F920F920FB60F9219
:105A100011248F939F938091000190910101892B14
:105A200011F481E085BD15BC80916D008F7E80935F
:105A30006D00809100019091010101969093010108
:105A4000809300019F918F910F900FBE0F901F9038
:105A500018951F920F920FB60F921124A8951092CD
:105A6000810015BC0F900FBE0F901F9018951F92CC
:105A70000F920FB60F9211248F9386E085BD8F9100
:105A80000F900FBE0F901F9018951895789484B5BD
:105A9000826084BD84B5816084BD85B5826085BD2A
:105AA00085B5816085BD80916E00816080936E00B8
:105AB00010928100809181008260809381008091AA
:105AC000810081608093810080918000816080935B
:105AD00080008091B10084608093B1008091B0001B
